{
  "contractName": "Crud",
  "abi": [
    {
      "inputs": [],
      "name": "nextId",
      "outputs": [
        {
          "internalType": "uint256",
          "name": "",
          "type": "uint256"
        }
      ],
      "stateMutability": "view",
      "type": "function"
    },
    {
      "inputs": [
        {
          "internalType": "uint256",
          "name": "",
          "type": "uint256"
        }
      ],
      "name": "users",
      "outputs": [
        {
          "internalType": "uint256",
          "name": "id",
          "type": "uint256"
        },
        {
          "internalType": "string",
          "name": "name",
          "type": "string"
        }
      ],
      "stateMutability": "view",
      "type": "function"
    },
    {
      "inputs": [
        {
          "internalType": "string",
          "name": "_name",
          "type": "string"
        }
      ],
      "name": "create",
      "outputs": [],
      "stateMutability": "nonpayable",
      "type": "function"
    },
    {
      "inputs": [
        {
          "internalType": "uint256",
          "name": "_id",
          "type": "uint256"
        }
      ],
      "name": "read",
      "outputs": [
        {
          "internalType": "uint256",
          "name": "",
          "type": "uint256"
        },
        {
          "internalType": "string",
          "name": "",
          "type": "string"
        }
      ],
      "stateMutability": "view",
      "type": "function"
    },
    {
      "inputs": [
        {
          "internalType": "uint256",
          "name": "_id",
          "type": "uint256"
        },
        {
          "internalType": "string",
          "name": "_name",
          "type": "string"
        }
      ],
      "name": "update",
      "outputs": [],
      "stateMutability": "nonpayable",
      "type": "function"
    },
    {
      "inputs": [
        {
          "internalType": "uint256",
          "name": "_id",
          "type": "uint256"
        }
      ],
      "name": "destroy",
      "outputs": [],
      "stateMutability": "nonpayable",
      "type": "function"
    }
  ],
  "bytecode": "0x60806040526001805534801561001457600080fd5b506109dd806100246000396000f3fe608060405234801561001057600080fd5b50600436106100625760003560e01c8063365b98b21461006757806361b8ce8c146100985780639d118770146100b6578063b6a46b3b146100d2578063ed2e5a97146100ee578063f745630f1461011f575b600080fd5b610081600480360381019061007c91906105a5565b61013b565b60405161008f92919061067a565b60405180910390f35b6100a06101f7565b6040516100ad91906106aa565b60405180910390f35b6100d060048036038101906100cb91906105a5565b6101fd565b005b6100ec60048036038101906100e791906107fa565b61024b565b005b610108600480360381019061010391906105a5565b6102d1565b60405161011692919061067a565b60405180910390f35b61013960048036038101906101349190610843565b6103c3565b005b6000818154811061014b57600080fd5b9060005260206000209060020201600091509050806000015490806001018054610174906108ce565b80601f01602080910402602001604051908101604052809291908181526020018280546101a0906108ce565b80156101ed5780601f106101c2576101008083540402835291602001916101ed565b820191906000526020600020905b8154815290600101906020018083116101d057829003601f168201915b5050505050905082565b60015481565b60006102088261040f565b90506000818154811061021e5761021d610900565b5b90600052602060002090600202016000808201600090556001820160006102459190610478565b50505050565b6000604051806040016040528060015481526020018381525090806001815401808255809150506001900390600052602060002090600202016000909190919091506000820151816000015560208201518160010190805190602001906102b39291906104b8565b505050600160008154809291906102c99061095e565b919050555050565b6000606060006102e08461040f565b9050600081815481106102f6576102f5610900565b5b9060005260206000209060020201600001546000828154811061031c5761031b610900565b5b9060005260206000209060020201600101808054610339906108ce565b80601f0160208091040260200160405190810160405280929190818152602001828054610365906108ce565b80156103b25780601f10610387576101008083540402835291602001916103b2565b820191906000526020600020905b81548152906001019060200180831161039557829003601f168201915b505050505090509250925050915091565b60006103ce8361040f565b905081600082815481106103e5576103e4610900565b5b906000526020600020906002020160010190805190602001906104099291906104b8565b50505050565b600080600090505b60008054905081101561046d57826000828154811061043957610438610900565b5b906000526020600020906002020160000154141561045a5780915050610473565b80806104659061095e565b915050610417565b50600080fd5b919050565b508054610484906108ce565b6000825580601f1061049657506104b5565b601f0160209004906000526020600020908101906104b4919061053e565b5b50565b8280546104c4906108ce565b90600052602060002090601f0160209004810192826104e6576000855561052d565b82601f106104ff57805160ff191683800117855561052d565b8280016001018555821561052d579182015b8281111561052c578251825591602001919060010190610511565b5b50905061053a919061053e565b5090565b5b8082111561055757600081600090555060010161053f565b5090565b6000604051905090565b600080fd5b600080fd5b6000819050919050565b6105828161056f565b811461058d57600080fd5b50565b60008135905061059f81610579565b92915050565b6000602082840312156105bb576105ba610565565b5b60006105c984828501610590565b91505092915050565b6105db8161056f565b82525050565b600081519050919050565b600082825260208201905092915050565b60005b8381101561061b578082015181840152602081019050610600565b8381111561062a576000848401525b50505050565b6000601f19601f8301169050919050565b600061064c826105e1565b61065681856105ec565b93506106668185602086016105fd565b61066f81610630565b840191505092915050565b600060408201905061068f60008301856105d2565b81810360208301526106a18184610641565b90509392505050565b60006020820190506106bf60008301846105d2565b92915050565b600080fd5b600080fd5b7f4e487b7100000000000000000000000000000000000000000000000000000000600052604160045260246000fd5b61070782610630565b810181811067ffffffffffffffff82111715610726576107256106cf565b5b80604052505050565b600061073961055b565b905061074582826106fe565b919050565b600067ffffffffffffffff821115610765576107646106cf565b5b61076e82610630565b9050602081019050919050565b82818337600083830152505050565b600061079d6107988461074a565b61072f565b9050828152602081018484840111156107b9576107b86106ca565b5b6107c484828561077b565b509392505050565b600082601f8301126107e1576107e06106c5565b5b81356107f184826020860161078a565b91505092915050565b6000602082840312156108105761080f610565565b5b600082013567ffffffffffffffff81111561082e5761082d61056a565b5b61083a848285016107cc565b91505092915050565b6000806040838503121561085a57610859610565565b5b600061086885828601610590565b925050602083013567ffffffffffffffff8111156108895761088861056a565b5b610895858286016107cc565b9150509250929050565b7f4e487b7100000000000000000000000000000000000000000000000000000000600052602260045260246000fd5b600060028204905060018216806108e657607f821691505b602082108114156108fa576108f961089f565b5b50919050565b7f4e487b7100000000000000000000000000000000000000000000000000000000600052603260045260246000fd5b7f4e487b7100000000000000000000000000000000000000000000000000000000600052601160045260246000fd5b60006109698261056f565b91507fffffffffffffffffffffffffffffffffffffffffffffffffffffffffffffffff82141561099c5761099b61092f565b5b60018201905091905056fea2646970667358221220d463506378a9c79851be61f18ea13ab4ddea4c2d40a11007729c76e2cbe56a8164736f6c634300080b0033",
  "immutableReferences": {},
  "source": "// SPDX-License-Identifier: MIT\npragma solidity >=0.4.22 <0.9.0;\n\ncontract Crud {\n  struct User {\n    uint id;\n    string name;\n  }\n\n  User[] public users;\n  uint public nextId = 1;\n\n  function create(string memory _name) public {\n    users.push(User(nextId, _name));\n    nextId++;\n  }\n\n  function read(uint _id) view public returns (uint, string memory) {\n    uint i = find(_id);\n    return (users[i].id, users[i].name);\n  }\n\n  function update(uint _id, string memory _name) public {\n    uint i = find(_id);\n    users[i].name = _name;\n  }\n\n  function destroy(uint _id) public {\n    uint i = find(_id);\n    delete users[i];\n  }\n\n  function find(uint _id) view internal returns(uint) {\n    for(uint i = 0; i < users.length; i++) {\n      if (users[i].id == _id) {\n        return i;\n      }\n    }\n    revert();\n  }\n\n}\n",
  "sourcePath": "/home/william/Workspace/testing-with-truffle/contracts/Crud.sol",
  "compiler": {
    "name": "solc",
    "version": "0.8.11+commit.d7f03943.Emscripten.clang"
  },
  "schemaVersion": "3.4.4",
  "updatedAt": "2022-01-22T01:29:28.169Z",
  "devdoc": {
    "kind": "dev",
    "methods": {},
    "version": 1
  },
  "userdoc": {
    "kind": "user",
    "methods": {},
    "version": 1
  }
}