{
  "contractName": "SimpleStorage",
  "abi": [
    {
      "inputs": [],
      "name": "data",
      "outputs": [
        {
          "internalType": "string",
          "name": "",
          "type": "string"
        }
      ],
      "stateMutability": "view",
      "type": "function"
    },
    {
      "inputs": [
        {
          "internalType": "string",
          "name": "_data",
          "type": "string"
        }
      ],
      "name": "set",
      "outputs": [],
      "stateMutability": "nonpayable",
      "type": "function"
    },
    {
      "inputs": [],
      "name": "get",
      "outputs": [
        {
          "internalType": "string",
          "name": "",
          "type": "string"
        }
      ],
      "stateMutability": "view",
      "type": "function"
    }
  ],
  "bytecode": "0x608060405234801561001057600080fd5b5061055f806100206000396000f3fe608060405234801561001057600080fd5b50600436106100415760003560e01c80634ed3885e146100465780636d4ce63c1461006257806373d4a13a14610080575b600080fd5b610060600480360381019061005b91906103d5565b61009e565b005b61006a6100b8565b60405161007791906104a6565b60405180910390f35b61008861014a565b60405161009591906104a6565b60405180910390f35b80600090805190602001906100b49291906101d8565b5050565b6060600080546100c7906104f7565b80601f01602080910402602001604051908101604052809291908181526020018280546100f3906104f7565b80156101405780601f1061011557610100808354040283529160200191610140565b820191906000526020600020905b81548152906001019060200180831161012357829003601f168201915b5050505050905090565b60008054610157906104f7565b80601f0160208091040260200160405190810160405280929190818152602001828054610183906104f7565b80156101d05780601f106101a5576101008083540402835291602001916101d0565b820191906000526020600020905b8154815290600101906020018083116101b357829003601f168201915b505050505081565b8280546101e4906104f7565b90600052602060002090601f016020900481019282610206576000855561024d565b82601f1061021f57805160ff191683800117855561024d565b8280016001018555821561024d579182015b8281111561024c578251825591602001919060010190610231565b5b50905061025a919061025e565b5090565b5b8082111561027757600081600090555060010161025f565b5090565b6000604051905090565b600080fd5b600080fd5b600080fd5b600080fd5b6000601f19601f8301169050919050565b7f4e487b7100000000000000000000000000000000000000000000000000000000600052604160045260246000fd5b6102e282610299565b810181811067ffffffffffffffff82111715610301576103006102aa565b5b80604052505050565b600061031461027b565b905061032082826102d9565b919050565b600067ffffffffffffffff8211156103405761033f6102aa565b5b61034982610299565b9050602081019050919050565b82818337600083830152505050565b600061037861037384610325565b61030a565b90508281526020810184848401111561039457610393610294565b5b61039f848285610356565b509392505050565b600082601f8301126103bc576103bb61028f565b5b81356103cc848260208601610365565b91505092915050565b6000602082840312156103eb576103ea610285565b5b600082013567ffffffffffffffff8111156104095761040861028a565b5b610415848285016103a7565b91505092915050565b600081519050919050565b600082825260208201905092915050565b60005b8381101561045857808201518184015260208101905061043d565b83811115610467576000848401525b50505050565b60006104788261041e565b6104828185610429565b935061049281856020860161043a565b61049b81610299565b840191505092915050565b600060208201905081810360008301526104c0818461046d565b905092915050565b7f4e487b7100000000000000000000000000000000000000000000000000000000600052602260045260246000fd5b6000600282049050600182168061050f57607f821691505b60208210811415610523576105226104c8565b5b5091905056fea264697066735822122039dd56b06af6912bc9db36c777ce58c8c63924102f69ec8cf25e98dfc9270e5564736f6c634300080b0033",
  "immutableReferences": {},
  "source": "// SPDX-License-Identifier: MIT\npragma solidity >=0.4.22 <0.9.0;\n\ncontract SimpleStorage {\n  string public data;\n\n  function set(string memory _data) public  {\n    data = _data;\n  }\n\n  function get() view public returns (string memory) {\n    return data;\n  }\n}\n",
  "sourcePath": "/home/william/Workspace/testing-with-truffle/contracts/SimpleStorage.sol",
  "compiler": {
    "name": "solc",
    "version": "0.8.11+commit.d7f03943.Emscripten.clang"
  },
  "schemaVersion": "3.4.4",
  "updatedAt": "2022-01-22T01:29:28.173Z",
  "devdoc": {
    "kind": "dev",
    "methods": {},
    "version": 1
  },
  "userdoc": {
    "kind": "user",
    "methods": {},
    "version": 1
  }
}